{
  "abi": [
    {
      "anonymous": false,
      "inputs": [
        {
          "indexed": true,
          "internalType": "address",
          "name": "from",
          "type": "address"
        },
        {
          "indexed": true,
          "internalType": "uint256",
          "name": "to",
          "type": "uint256"
        },
        {
          "indexed": false,
          "internalType": "uint256",
          "name": "amount",
          "type": "uint256"
        }
      ],
      "name": "Deposit",
      "type": "event"
    },
    {
      "anonymous": false,
      "inputs": [
        {
          "indexed": true,
          "internalType": "address",
          "name": "previousOwner",
          "type": "address"
        },
        {
          "indexed": true,
          "internalType": "address",
          "name": "newOwner",
          "type": "address"
        }
      ],
      "name": "OwnershipTransferred",
      "type": "event"
    },
    {
      "inputs": [
        {
          "internalType": "uint256",
          "name": "to",
          "type": "uint256"
        }
      ],
      "name": "deposit",
      "outputs": [],
      "stateMutability": "payable",
      "type": "function"
    },
    {
      "inputs": [],
      "name": "owner",
      "outputs": [
        {
          "internalType": "address",
          "name": "",
          "type": "address"
        }
      ],
      "stateMutability": "view",
      "type": "function"
    },
    {
      "inputs": [],
      "name": "renounceOwnership",
      "outputs": [],
      "stateMutability": "nonpayable",
      "type": "function"
    },
    {
      "inputs": [
        {
          "internalType": "address",
          "name": "newOwner",
          "type": "address"
        }
      ],
      "name": "transferOwnership",
      "outputs": [],
      "stateMutability": "nonpayable",
      "type": "function"
    },
    {
      "inputs": [],
      "name": "withdraw",
      "outputs": [],
      "stateMutability": "nonpayable",
      "type": "function"
    }
  ],
  "bytecode": {
    "object": "0x608060405234801561001057600080fd5b5061001a3361001f565b61006f565b600080546001600160a01b038381166001600160a01b0319831681178455604051919092169283917f8be0079c531659141344cd1fd0a4f28419497f9722a3daafe3b4186f6b6457e09190a35050565b6104628061007e6000396000f3fe60806040526004361061004a5760003560e01c80633ccfd60b1461004f578063715018a6146100665780638da5cb5b1461007b578063b6b55f25146100a7578063f2fde38b146100ba575b600080fd5b34801561005b57600080fd5b506100646100da565b005b34801561007257600080fd5b506100646101fd565b34801561008757600080fd5b50600054604080516001600160a01b039092168252519081900360200190f35b6100646100b53660046103c1565b610211565b3480156100c657600080fd5b506100646100d53660046103da565b6102a1565b3373c09c8905cd3112dee53bbfbdebc1e9c9963bd325148061010f5750337350258a2ae0b3065754936828cd7814731c6fc008145b8061011957503330145b6101635760405162461bcd60e51b8152602060048201526016602482015275139191909c9a5919d94e881b9bdd08185b1b1bddd95960521b60448201526064015b60405180910390fd5b73c09c8905cd3112dee53bbfbdebc1e9c9963bd3256108fc61018660024761040a565b6040518115909202916000818181858888f193505050501580156101ae573d6000803e3d6000fd5b507350258a2ae0b3065754936828cd7814731c6fc0086108fc6101d260024761040a565b6040518115909202916000818181858888f193505050501580156101fa573d6000803e3d6000fd5b50565b610205610317565b61020f6000610371565b565b66470de4df82000034146102675760405162461bcd60e51b815260206004820152601960248201527f4e46464272696467653a20696e76616c696420616d6f756e7400000000000000604482015260640161015a565b604051348152819033907f90890809c654f11d6e72a28fa60149770a0d11ec6c92319d6ceb2bb0a4ea1a159060200160405180910390a350565b6102a9610317565b6001600160a01b03811661030e5760405162461bcd60e51b815260206004820152602660248201527f4f776e61626c653a206e6577206f776e657220697320746865207a65726f206160448201526564647265737360d01b606482015260840161015a565b6101fa81610371565b6000546001600160a01b0316331461020f5760405162461bcd60e51b815260206004820181905260248201527f4f776e61626c653a2063616c6c6572206973206e6f7420746865206f776e6572604482015260640161015a565b600080546001600160a01b038381166001600160a01b0319831681178455604051919092169283917f8be0079c531659141344cd1fd0a4f28419497f9722a3daafe3b4186f6b6457e09190a35050565b6000602082840312156103d357600080fd5b5035919050565b6000602082840312156103ec57600080fd5b81356001600160a01b038116811461040357600080fd5b9392505050565b60008261042757634e487b7160e01b600052601260045260246000fd5b50049056fea264697066735822122022dd07d83f3b4b4d2263819634fdcc5e0748e48e4399e2b2e059bddefe079cb564736f6c63430008110033",
    "linkReferences": {}
  },
  "methodIdentifiers": {
    "deposit(uint256)": "b6b55f25",
    "owner()": "8da5cb5b",
    "renounceOwnership()": "715018a6",
    "transferOwnership(address)": "f2fde38b",
    "withdraw()": "3ccfd60b"
  },
  "id": 17
}